{
  "abi": [
    {
      "inputs": [
        {
          "internalType": "uint256",
          "name": "_totalSupply",
          "type": "uint256"
        },
        {
          "internalType": "address",
          "name": "_devFund",
          "type": "address"
        },
        {
          "internalType": "address",
          "name": "_router",
          "type": "address"
        }
      ],
      "stateMutability": "nonpayable",
      "type": "constructor"
    },
    {
      "anonymous": false,
      "inputs": [
        {
          "indexed": true,
          "internalType": "address",
          "name": "owner",
          "type": "address"
        },
        {
          "indexed": true,
          "internalType": "address",
          "name": "spender",
          "type": "address"
        },
        {
          "indexed": false,
          "internalType": "uint256",
          "name": "value",
          "type": "uint256"
        }
      ],
      "name": "Approval",
      "type": "event"
    },
    {
      "anonymous": false,
      "inputs": [
        {
          "indexed": true,
          "internalType": "address",
          "name": "previousOwner",
          "type": "address"
        },
        {
          "indexed": true,
          "internalType": "address",
          "name": "newOwner",
          "type": "address"
        }
      ],
      "name": "OwnershipTransferred",
      "type": "event"
    },
    {
      "anonymous": false,
      "inputs": [
        {
          "indexed": true,
          "internalType": "address",
          "name": "from",
          "type": "address"
        },
        {
          "indexed": true,
          "internalType": "address",
          "name": "to",
          "type": "address"
        },
        {
          "indexed": false,
          "internalType": "uint256",
          "name": "value",
          "type": "uint256"
        }
      ],
      "name": "Transfer",
      "type": "event"
    },
    {
      "inputs": [],
      "name": "FEE_DENOMINATOR",
      "outputs": [
        {
          "internalType": "uint256",
          "name": "",
          "type": "uint256"
        }
      ],
      "stateMutability": "view",
      "type": "function"
    },
    {
      "inputs": [
        {
          "internalType": "address",
          "name": "owner",
          "type": "address"
        },
        {
          "internalType": "address",
          "name": "spender",
          "type": "address"
        }
      ],
      "name": "allowance",
      "outputs": [
        {
          "internalType": "uint256",
          "name": "",
          "type": "uint256"
        }
      ],
      "stateMutability": "view",
      "type": "function"
    },
    {
      "inputs": [
        {
          "internalType": "address",
          "name": "spender",
          "type": "address"
        },
        {
          "internalType": "uint256",
          "name": "amount",
          "type": "uint256"
        }
      ],
      "name": "approve",
      "outputs": [
        {
          "internalType": "bool",
          "name": "",
          "type": "bool"
        }
      ],
      "stateMutability": "nonpayable",
      "type": "function"
    },
    {
      "inputs": [
        {
          "internalType": "address",
          "name": "account",
          "type": "address"
        }
      ],
      "name": "balanceOf",
      "outputs": [
        {
          "internalType": "uint256",
          "name": "",
          "type": "uint256"
        }
      ],
      "stateMutability": "view",
      "type": "function"
    },
    {
      "inputs": [
        {
          "internalType": "address",
          "name": "_address",
          "type": "address"
        },
        {
          "internalType": "bool",
          "name": "_isBlacklisting",
          "type": "bool"
        }
      ],
      "name": "blacklist",
      "outputs": [],
      "stateMutability": "nonpayable",
      "type": "function"
    },
    {
      "inputs": [
        {
          "internalType": "address",
          "name": "account",
          "type": "address"
        }
      ],
      "name": "blacklists",
      "outputs": [
        {
          "internalType": "bool",
          "name": "isBlacklisted",
          "type": "bool"
        }
      ],
      "stateMutability": "view",
      "type": "function"
    },
    {
      "inputs": [
        {
          "internalType": "uint256",
          "name": "amount",
          "type": "uint256"
        }
      ],
      "name": "burn",
      "outputs": [],
      "stateMutability": "nonpayable",
      "type": "function"
    },
    {
      "inputs": [
        {
          "internalType": "address",
          "name": "account",
          "type": "address"
        },
        {
          "internalType": "uint256",
          "name": "amount",
          "type": "uint256"
        }
      ],
      "name": "burnFrom",
      "outputs": [],
      "stateMutability": "nonpayable",
      "type": "function"
    },
    {
      "inputs": [],
      "name": "burnRate",
      "outputs": [
        {
          "internalType": "uint256",
          "name": "",
          "type": "uint256"
        }
      ],
      "stateMutability": "view",
      "type": "function"
    },
    {
      "inputs": [],
      "name": "commissionRate",
      "outputs": [
        {
          "internalType": "uint256",
          "name": "",
          "type": "uint256"
        }
      ],
      "stateMutability": "view",
      "type": "function"
    },
    {
      "inputs": [],
      "name": "decimals",
      "outputs": [
        {
          "internalType": "uint8",
          "name": "",
          "type": "uint8"
        }
      ],
      "stateMutability": "view",
      "type": "function"
    },
    {
      "inputs": [
        {
          "internalType": "address",
          "name": "spender",
          "type": "address"
        },
        {
          "internalType": "uint256",
          "name": "subtractedValue",
          "type": "uint256"
        }
      ],
      "name": "decreaseAllowance",
      "outputs": [
        {
          "internalType": "bool",
          "name": "",
          "type": "bool"
        }
      ],
      "stateMutability": "nonpayable",
      "type": "function"
    },
    {
      "inputs": [],
      "name": "devFund",
      "outputs": [
        {
          "internalType": "address payable",
          "name": "",
          "type": "address"
        }
      ],
      "stateMutability": "view",
      "type": "function"
    },
    {
      "inputs": [],
      "name": "devFundRate",
      "outputs": [
        {
          "internalType": "uint256",
          "name": "",
          "type": "uint256"
        }
      ],
      "stateMutability": "view",
      "type": "function"
    },
    {
      "inputs": [
        {
          "internalType": "address",
          "name": "spender",
          "type": "address"
        },
        {
          "internalType": "uint256",
          "name": "addedValue",
          "type": "uint256"
        }
      ],
      "name": "increaseAllowance",
      "outputs": [
        {
          "internalType": "bool",
          "name": "",
          "type": "bool"
        }
      ],
      "stateMutability": "nonpayable",
      "type": "function"
    },
    {
      "inputs": [],
      "name": "limited",
      "outputs": [
        {
          "internalType": "bool",
          "name": "",
          "type": "bool"
        }
      ],
      "stateMutability": "view",
      "type": "function"
    },
    {
      "inputs": [],
      "name": "maxHoldingAmount",
      "outputs": [
        {
          "internalType": "uint256",
          "name": "",
          "type": "uint256"
        }
      ],
      "stateMutability": "view",
      "type": "function"
    },
    {
      "inputs": [],
      "name": "maxTaxForParentsRate",
      "outputs": [
        {
          "internalType": "uint256",
          "name": "",
          "type": "uint256"
        }
      ],
      "stateMutability": "view",
      "type": "function"
    },
    {
      "inputs": [],
      "name": "minHoldingAmount",
      "outputs": [
        {
          "internalType": "uint256",
          "name": "",
          "type": "uint256"
        }
      ],
      "stateMutability": "view",
      "type": "function"
    },
    {
      "inputs": [],
      "name": "name",
      "outputs": [
        {
          "internalType": "string",
          "name": "",
          "type": "string"
        }
      ],
      "stateMutability": "view",
      "type": "function"
    },
    {
      "inputs": [],
      "name": "owner",
      "outputs": [
        {
          "internalType": "address",
          "name": "",
          "type": "address"
        }
      ],
      "stateMutability": "view",
      "type": "function"
    },
    {
      "inputs": [],
      "name": "rebateRate",
      "outputs": [
        {
          "internalType": "uint256",
          "name": "",
          "type": "uint256"
        }
      ],
      "stateMutability": "view",
      "type": "function"
    },
    {
      "inputs": [
        {
          "internalType": "address",
          "name": "_token",
          "type": "address"
        },
        {
          "internalType": "uint256",
          "name": "_amount",
          "type": "uint256"
        }
      ],
      "name": "recover",
      "outputs": [],
      "stateMutability": "nonpayable",
      "type": "function"
    },
    {
      "inputs": [
        {
          "internalType": "address",
          "name": "",
          "type": "address"
        }
      ],
      "name": "refersInfo",
      "outputs": [
        {
          "internalType": "address",
          "name": "parentLevel1",
          "type": "address"
        },
        {
          "internalType": "address",
          "name": "parentLevel2",
          "type": "address"
        },
        {
          "internalType": "address",
          "name": "parentLevel3",
          "type": "address"
        },
        {
          "internalType": "address",
          "name": "parentLevel4",
          "type": "address"
        },
        {
          "internalType": "address",
          "name": "parentLevel5",
          "type": "address"
        }
      ],
      "stateMutability": "view",
      "type": "function"
    },
    {
      "inputs": [],
      "name": "renounceOwnership",
      "outputs": [],
      "stateMutability": "nonpayable",
      "type": "function"
    },
    {
      "inputs": [
        {
          "internalType": "address",
          "name": "_devFund",
          "type": "address"
        }
      ],
      "name": "setDevFund",
      "outputs": [],
      "stateMutability": "nonpayable",
      "type": "function"
    },
    {
      "inputs": [
        {
          "internalType": "address",
          "name": "parentAddress",
          "type": "address"
        }
      ],
      "name": "setParent",
      "outputs": [],
      "stateMutability": "nonpayable",
      "type": "function"
    },
    {
      "inputs": [
        {
          "internalType": "bool",
          "name": "_limited",
          "type": "bool"
        },
        {
          "internalType": "uint256",
          "name": "_maxHoldingAmount",
          "type": "uint256"
        },
        {
          "internalType": "uint256",
          "name": "_minHoldingAmount",
          "type": "uint256"
        }
      ],
      "name": "setRule",
      "outputs": [],
      "stateMutability": "nonpayable",
      "type": "function"
    },
    {
      "inputs": [
        {
          "internalType": "bool",
          "name": "_state",
          "type": "bool"
        }
      ],
      "name": "setSwapAndTreasureEnabled",
      "outputs": [],
      "stateMutability": "nonpayable",
      "type": "function"
    },
    {
      "inputs": [
        {
          "internalType": "uint256",
          "name": "_amount",
          "type": "uint256"
        }
      ],
      "name": "setSwapAtAmount",
      "outputs": [],
      "stateMutability": "nonpayable",
      "type": "function"
    },
    {
      "inputs": [
        {
          "internalType": "address",
          "name": "_uniswapV2Pair",
          "type": "address"
        }
      ],
      "name": "setUniswapV2Pair",
      "outputs": [],
      "stateMutability": "nonpayable",
      "type": "function"
    },
    {
      "inputs": [],
      "name": "swapAndTreasureEnabled",
      "outputs": [
        {
          "internalType": "bool",
          "name": "",
          "type": "bool"
        }
      ],
      "stateMutability": "view",
      "type": "function"
    },
    {
      "inputs": [],
      "name": "swapAtAmount",
      "outputs": [
        {
          "internalType": "uint256",
          "name": "",
          "type": "uint256"
        }
      ],
      "stateMutability": "view",
      "type": "function"
    },
    {
      "inputs": [],
      "name": "symbol",
      "outputs": [
        {
          "internalType": "string",
          "name": "",
          "type": "string"
        }
      ],
      "stateMutability": "view",
      "type": "function"
    },
    {
      "inputs": [],
      "name": "taxForParentLevel1Rate",
      "outputs": [
        {
          "internalType": "uint256",
          "name": "",
          "type": "uint256"
        }
      ],
      "stateMutability": "view",
      "type": "function"
    },
    {
      "inputs": [],
      "name": "taxForParentLevel2Rate",
      "outputs": [
        {
          "internalType": "uint256",
          "name": "",
          "type": "uint256"
        }
      ],
      "stateMutability": "view",
      "type": "function"
    },
    {
      "inputs": [],
      "name": "taxForParentLevel3Rate",
      "outputs": [
        {
          "internalType": "uint256",
          "name": "",
          "type": "uint256"
        }
      ],
      "stateMutability": "view",
      "type": "function"
    },
    {
      "inputs": [],
      "name": "taxForParentLevel4Rate",
      "outputs": [
        {
          "internalType": "uint256",
          "name": "",
          "type": "uint256"
        }
      ],
      "stateMutability": "view",
      "type": "function"
    },
    {
      "inputs": [],
      "name": "taxForParentLevel5Rate",
      "outputs": [
        {
          "internalType": "uint256",
          "name": "",
          "type": "uint256"
        }
      ],
      "stateMutability": "view",
      "type": "function"
    },
    {
      "inputs": [],
      "name": "taxRate",
      "outputs": [
        {
          "internalType": "uint256",
          "name": "",
          "type": "uint256"
        }
      ],
      "stateMutability": "view",
      "type": "function"
    },
    {
      "inputs": [],
      "name": "totalSupply",
      "outputs": [
        {
          "internalType": "uint256",
          "name": "",
          "type": "uint256"
        }
      ],
      "stateMutability": "view",
      "type": "function"
    },
    {
      "inputs": [
        {
          "internalType": "address",
          "name": "to",
          "type": "address"
        },
        {
          "internalType": "uint256",
          "name": "amount",
          "type": "uint256"
        }
      ],
      "name": "transfer",
      "outputs": [
        {
          "internalType": "bool",
          "name": "",
          "type": "bool"
        }
      ],
      "stateMutability": "nonpayable",
      "type": "function"
    },
    {
      "inputs": [
        {
          "internalType": "address",
          "name": "sender",
          "type": "address"
        },
        {
          "internalType": "address",
          "name": "to",
          "type": "address"
        },
        {
          "internalType": "uint256",
          "name": "amount",
          "type": "uint256"
        }
      ],
      "name": "transferFrom",
      "outputs": [
        {
          "internalType": "bool",
          "name": "",
          "type": "bool"
        }
      ],
      "stateMutability": "nonpayable",
      "type": "function"
    },
    {
      "inputs": [
        {
          "internalType": "address",
          "name": "newOwner",
          "type": "address"
        }
      ],
      "name": "transferOwnership",
      "outputs": [],
      "stateMutability": "nonpayable",
      "type": "function"
    },
    {
      "inputs": [],
      "name": "uniswapV2Pair",
      "outputs": [
        {
          "internalType": "address",
          "name": "",
          "type": "address"
        }
      ],
      "stateMutability": "view",
      "type": "function"
    },
    {
      "inputs": [],
      "name": "uniswapV2Router",
      "outputs": [
        {
          "internalType": "contract ICamelotRouterV2",
          "name": "",
          "type": "address"
        }
      ],
      "stateMutability": "view",
      "type": "function"
    },
    {
      "inputs": [
        {
          "internalType": "address",
          "name": "",
          "type": "address"
        }
      ],
      "name": "usersInfo",
      "outputs": [
        {
          "internalType": "address",
          "name": "referredBy",
          "type": "address"
        },
        {
          "internalType": "bool",
          "name": "referred",
          "type": "bool"
        }
      ],
      "stateMutability": "view",
      "type": "function"
    },
    {
      "stateMutability": "payable",
      "type": "receive"
    }
  ],
  "bytecode": {
    "object": "0x60806040526006805460ff60a81b1916600160a81b1790553480156200002457600080fd5b5060405162002b2a38038062002b2a8339810160408190526200004791620003d0565b6040518060400160405280600b81526020016a2837b73d34902a37b5b2b760a91b81525060405180604001604052806005815260200164504f4e5a4960d81b81525081600390816200009a9190620004b5565b506004620000a98282620004b5565b505050620000c6620000c06200012960201b60201c565b6200012d565b600680546001600160a01b038085166001600160a01b03199283161790925560088054928416929091169190911790556200010233846200017f565b620186a06200011060025490565b6200011c919062000581565b60075550620005cc915050565b3390565b600580546001600160a01b038381166001600160a01b0319831681179093556040519116919082907f8be0079c531659141344cd1fd0a4f28419497f9722a3daafe3b4186f6b6457e090600090a35050565b6001600160a01b038216620001db5760405162461bcd60e51b815260206004820152601f60248201527f45524332303a206d696e7420746f20746865207a65726f20616464726573730060448201526064015b60405180910390fd5b620001e96000838362000254565b8060026000828254620001fd9190620005a4565b90915550506001600160a01b038216600081815260208181526040808320805486019055518481527fddf252ad1be2c89b69c2b068fc378daa952ba7f163c4a11628f55a4df523b3ef910160405180910390a35050565b6009546001600160a01b0316620002e2576005546001600160a01b03848116911614806200028f57506005546001600160a01b038381169116145b620002dd5760405162461bcd60e51b815260206004820152601660248201527f54726164696e67206973206e6f742073746172746564000000000000000000006044820152606401620001d2565b505050565b600954600160a01b900460ff1680156200030957506009546001600160a01b038481169116145b15620002dd57600a548162000333846001600160a01b031660009081526020819052604090205490565b6200033f9190620005a4565b111580156200037c5750600b54816200036d846001600160a01b031660009081526020819052604090205490565b620003799190620005a4565b10155b620002dd5760405162461bcd60e51b8152602060048201526006602482015265119bdc989a5960d21b6044820152606401620001d2565b80516001600160a01b0381168114620003cb57600080fd5b919050565b600080600060608486031215620003e657600080fd5b83519250620003f860208501620003b3565b91506200040860408501620003b3565b90509250925092565b634e487b7160e01b600052604160045260246000fd5b600181811c908216806200043c57607f821691505b6020821081036200045d57634e487b7160e01b600052602260045260246000fd5b50919050565b601f821115620002dd57600081815260208120601f850160051c810160208610156200048c5750805b601f850160051c820191505b81811015620004ad5782815560010162000498565b505050505050565b81516001600160401b03811115620004d157620004d162000411565b620004e981620004e2845462000427565b8462000463565b602080601f831160018114620005215760008415620005085750858301515b600019600386901b1c1916600185901b178555620004ad565b600085815260208120601f198616915b82811015620005525788860151825594840194600190910190840162000531565b5085821015620005715787850151600019600388901b60f8161c191681555b5050505050600190811b01905550565b6000826200059f57634e487b7160e01b600052601260045260246000fd5b500490565b80820180821115620005c657634e487b7160e01b600052601160045260246000fd5b92915050565b61254e80620005dc6000396000f3fe60806040526004361061030c5760003560e01c8063749699451161019a578063ae4db919116100e1578063c75c136d1161008a578063dd62ed3e11610064578063dd62ed3e146108bc578063f2fde38b14610902578063fd1e467f1461092257600080fd5b8063c75c136d14610866578063d07ea4e214610886578063d73792a9146108a657600080fd5b8063bed99850116100bb578063bed9985014610851578063c0a4545214610851578063c412664a1461085157600080fd5b8063ae4db91914610786578063b4cb6a9b146107a6578063b681a1e71461083b57600080fd5b80638da5cb5b11610143578063a29a60891161011d578063a29a608914610726578063a457c2d714610746578063a9059cbb1461076657600080fd5b80638da5cb5b146106de57806395d89b41146106fc5780639dc671201461071157600080fd5b8063860a32ec11610174578063860a32ec1461068057806386917524146106b257806389f9a1d3146106c857600080fd5b80637496994514610452578063771a3a1d1461064a57806379cc67901461066057600080fd5b8063404e51291161025e5780635ea1d6f8116102075780636402511e116101e15780636402511e146105df57806370a08231146105ff578063715018a61461063557600080fd5b80635ea1d6f8146105b557806361b62d68146105ca57806363656178146105b557600080fd5b806349bd5a5e1161023857806349bd5a5e146105035780635705ae43146105235780635d0eaaaf1461054357600080fd5b8063404e5129146104a357806342966c68146104c35780634390d2a8146104e357600080fd5b806318160ddd116102c05780632589e55f1161029a5780632589e55f14610452578063313ce56714610467578063395093511461048357600080fd5b806318160ddd146103fd5780631ab99e121461041c57806323b872dd1461043257600080fd5b80631499c592116102f15780631499c592146103735780631694505e1461039557806316c02129146103cd57600080fd5b806306fdde0314610318578063095ea7b31461034357600080fd5b3661031357005b600080fd5b34801561032457600080fd5b5061032d610955565b60405161033a9190612187565b60405180910390f35b34801561034f57600080fd5b5061036361035e366004612208565b6109e7565b604051901515815260200161033a565b34801561037f57600080fd5b5061039361038e366004612234565b610a01565b005b3480156103a157600080fd5b506008546103b5906001600160a01b031681565b6040516001600160a01b03909116815260200161033a565b3480156103d957600080fd5b506103636103e8366004612234565b600c6020526000908152604090205460ff1681565b34801561040957600080fd5b506002545b60405190815260200161033a565b34801561042857600080fd5b5061040e600b5481565b34801561043e57600080fd5b5061036361044d366004612251565b610e09565b34801561045e57600080fd5b5061040e600a81565b34801561047357600080fd5b506040516012815260200161033a565b34801561048f57600080fd5b5061036361049e366004612208565b610e2d565b3480156104af57600080fd5b506103936104be3660046122a0565b610e6c565b3480156104cf57600080fd5b506103936104de3660046122d9565b610ebd565b3480156104ef57600080fd5b506006546103b5906001600160a01b031681565b34801561050f57600080fd5b506009546103b5906001600160a01b031681565b34801561052f57600080fd5b5061039361053e366004612208565b610eca565b34801561054f57600080fd5b5061059661055e366004612234565b600e602052600090815260409020546001600160a01b0381169074010000000000000000000000000000000000000000900460ff1682565b604080516001600160a01b03909316835290151560208301520161033a565b3480156105c157600080fd5b5061040e60c881565b3480156105d657600080fd5b5061040e601e81565b3480156105eb57600080fd5b506103936105fa3660046122d9565b61100c565b34801561060b57600080fd5b5061040e61061a366004612234565b6001600160a01b031660009081526020819052604090205490565b34801561064157600080fd5b50610393611069565b34801561065657600080fd5b5061040e61025881565b34801561066c57600080fd5b5061039361067b366004612208565b61107d565b34801561068c57600080fd5b506009546103639074010000000000000000000000000000000000000000900460ff1681565b3480156106be57600080fd5b5061040e60075481565b3480156106d457600080fd5b5061040e600a5481565b3480156106ea57600080fd5b506005546001600160a01b03166103b5565b34801561070857600080fd5b5061032d611092565b34801561071d57600080fd5b5061040e606481565b34801561073257600080fd5b50610393610741366004612234565b6110a1565b34801561075257600080fd5b50610363610761366004612208565b6110e3565b34801561077257600080fd5b50610363610781366004612208565b61118d565b34801561079257600080fd5b506103936107a1366004612234565b6111a3565b3480156107b257600080fd5b506108016107c1366004612234565b600d60205260009081526040902080546001820154600283015460038401546004909401546001600160a01b039384169492841693918216928216911685565b604080516001600160a01b03968716815294861660208601529285169284019290925283166060830152909116608082015260a00161033a565b34801561084757600080fd5b5061040e61012c81565b34801561085d57600080fd5b5061040e603281565b34801561087257600080fd5b506103936108813660046122f2565b6111e5565b34801561089257600080fd5b506103936108a136600461230f565b611238565b3480156108b257600080fd5b5061040e61271081565b3480156108c857600080fd5b5061040e6108d7366004612344565b6001600160a01b03918216600090815260016020908152604080832093909416825291909152205490565b34801561090e57600080fd5b5061039361091d366004612234565b611291565b34801561092e57600080fd5b50600654610363907501000000000000000000000000000000000000000000900460ff1681565b60606003805461096490612372565b80601f016020809104026020016040519081016040528092919081815260200182805461099090612372565b80156109dd5780601f106109b2576101008083540402835291602001916109dd565b820191906000526020600020905b8154815290600101906020018083116109c057829003601f168201915b5050505050905090565b6000336109f581858561131e565b60019150505b92915050565b336000908152600e60205260409020546001600160a01b031615610a6c5760405162461bcd60e51b815260206004820152601660248201527f416c7265616479206265696e672072656665727265640000000000000000000060448201526064015b60405180910390fd5b336000908152600e602052604090205474010000000000000000000000000000000000000000900460ff1615610ae45760405162461bcd60e51b815260206004820152601060248201527f416c7265616479207265666572726564000000000000000000000000000000006044820152606401610a63565b336001600160a01b03821603610b3c5760405162461bcd60e51b815260206004820152601960248201527f596f752063616e6e6f7420726566657220796f757273656c66000000000000006044820152606401610a63565b336000818152600e602052604080822080547fffffffffffffffffffffffff0000000000000000000000000000000000000000166001600160a01b03868116918217909255808452828420548216808552838520548316808652848620548416808752949095205491959094939291909116908514801590610bc657506001600160a01b03851615155b15610c5957336000908152600d6020908152604080832080546001600160a01b038a167fffffffffffffffffffffffff000000000000000000000000000000000000000090911681179091558352600e909152902080547fffffffffffffffffffffff00ffffffffffffffffffffffffffffffffffffffff16740100000000000000000000000000000000000000001790555b6001600160a01b0384163314801590610c7a57506001600160a01b03841615155b15610cc357336000908152600d6020526040902060010180547fffffffffffffffffffffffff0000000000000000000000000000000000000000166001600160a01b0386161790555b6001600160a01b0383163314801590610ce457506001600160a01b03831615155b15610d2d57336000908152600d6020526040902060020180547fffffffffffffffffffffffff0000000000000000000000000000000000000000166001600160a01b0385161790555b6001600160a01b0382163314801590610d4e57506001600160a01b03821615155b15610d9757336000908152600d6020526040902060030180547fffffffffffffffffffffffff0000000000000000000000000000000000000000166001600160a01b0384161790555b6001600160a01b0381163314801590610db857506001600160a01b03811615155b15610e0157336000908152600d6020526040902060040180547fffffffffffffffffffffffff0000000000000000000000000000000000000000166001600160a01b0383161790555b505050505050565b600033610e17858285611476565b610e22858585611526565b506001949350505050565b3360008181526001602090815260408083206001600160a01b03871684529091528120549091906109f59082908690610e679087906123f4565b61131e565b610e74611713565b6001600160a01b03919091166000908152600c6020526040902080547fffffffffffffffffffffffffffffffffffffffffffffffffffffffffffffff0016911515919091179055565b610ec7338261176d565b50565b610ed2611713565b6001600160a01b03821615610f70576040517fa9059cbb000000000000000000000000000000000000000000000000000000008152336004820152602481018290526001600160a01b0383169063a9059cbb906044016020604051808303816000875af1158015610f47573d6000803e3d6000fd5b505050506040513d601f19601f82011682018060405250810190610f6b9190612407565b505050565b604051600090339083908381818185875af1925050503d8060008114610fb2576040519150601f19603f3d011682016040523d82523d6000602084013e610fb7565b606091505b5050905080610f6b5760405162461bcd60e51b815260206004820152600e60248201527f43616e27742073656e64204554480000000000000000000000000000000000006044820152606401610a63565b5050565b611014611713565b600081116110645760405162461bcd60e51b815260206004820152600a60248201527f7a65726f20696e707574000000000000000000000000000000000000000000006044820152606401610a63565b600755565b611071611713565b61107b60006118e2565b565b611088823383611476565b611008828261176d565b60606004805461096490612372565b6110a9611713565b600980547fffffffffffffffffffffffff0000000000000000000000000000000000000000166001600160a01b0392909216919091179055565b3360008181526001602090815260408083206001600160a01b0387168452909152812054909190838110156111805760405162461bcd60e51b815260206004820152602560248201527f45524332303a2064656372656173656420616c6c6f77616e63652062656c6f7760448201527f207a65726f0000000000000000000000000000000000000000000000000000006064820152608401610a63565b610e22828686840361131e565b600061119a338484611526565b50600192915050565b6111ab611713565b600680547fffffffffffffffffffffffff0000000000000000000000000000000000000000166001600160a01b0392909216919091179055565b6111ed611713565b600680549115157501000000000000000000000000000000000000000000027fffffffffffffffffffff00ffffffffffffffffffffffffffffffffffffffffff909216919091179055565b611240611713565b6009805493151574010000000000000000000000000000000000000000027fffffffffffffffffffffff00ffffffffffffffffffffffffffffffffffffffff90941693909317909255600a55600b55565b611299611713565b6001600160a01b0381166113155760405162461bcd60e51b815260206004820152602660248201527f4f776e61626c653a206e6577206f776e657220697320746865207a65726f206160448201527f64647265737300000000000000000000000000000000000000000000000000006064820152608401610a63565b610ec7816118e2565b6001600160a01b0383166113995760405162461bcd60e51b8152602060048201526024808201527f45524332303a20617070726f76652066726f6d20746865207a65726f2061646460448201527f72657373000000000000000000000000000000000000000000000000000000006064820152608401610a63565b6001600160a01b0382166114155760405162461bcd60e51b815260206004820152602260248201527f45524332303a20617070726f766520746f20746865207a65726f20616464726560448201527f73730000000000000000000000000000000000000000000000000000000000006064820152608401610a63565b6001600160a01b0383811660008181526001602090815260408083209487168084529482529182902085905590518481527f8c5be1e5ebec7d5bd14f71427d1e84f3dd0314c0f7b2291e5b200ac8c7c3b925910160405180910390a3505050565b6001600160a01b038381166000908152600160209081526040808320938616835292905220547fffffffffffffffffffffffffffffffffffffffffffffffffffffffffffffffff811461152057818110156115135760405162461bcd60e51b815260206004820152601d60248201527f45524332303a20696e73756666696369656e7420616c6c6f77616e63650000006044820152606401610a63565b611520848484840361131e565b50505050565b6009546001600160a01b038481169116148061154f57506009546001600160a01b038381169116145b15611708576009546000906001600160a01b038581169116146115725783611574565b825b9050600061158382868561194c565b9050600061012c826115986032610258612424565b6115a29190612424565b6115ac9190612424565b600954909150610258906001600160a01b0388811691161480156115d05750600083115b156115fc5760c860326115e581610258612424565b6115ef9190612424565b6115f99190612424565b90505b826000036116135761161061012c836123f4565b91505b6009546001600160a01b039081169087160361163d5761163d87336116388886611b58565b611b78565b61164a6104de8684611b58565b6006547501000000000000000000000000000000000000000000900460ff16801561168657506007543060009081526020819052604090205410155b80156116ad575060065474010000000000000000000000000000000000000000900460ff16155b80156116c657506009546001600160a01b038781169116145b156116d6576116d6600754611d70565b6116ef87876116e58885611b58565b6116389089612424565b6116ff8730611638886032611b58565b50505050505050565b610f6b838383611b78565b6005546001600160a01b0316331461107b5760405162461bcd60e51b815260206004820181905260248201527f4f776e61626c653a2063616c6c6572206973206e6f7420746865206f776e65726044820152606401610a63565b6001600160a01b0382166117e95760405162461bcd60e51b815260206004820152602160248201527f45524332303a206275726e2066726f6d20746865207a65726f2061646472657360448201527f73000000000000000000000000000000000000000000000000000000000000006064820152608401610a63565b6117f582600083612014565b6001600160a01b038216600090815260208190526040902054818110156118845760405162461bcd60e51b815260206004820152602260248201527f45524332303a206275726e20616d6f756e7420657863656564732062616c616e60448201527f63650000000000000000000000000000000000000000000000000000000000006064820152608401610a63565b6001600160a01b0383166000818152602081815260408083208686039055600280548790039055518581529192917fddf252ad1be2c89b69c2b068fc378daa952ba7f163c4a11628f55a4df523b3ef910160405180910390a3505050565b600580546001600160a01b038381167fffffffffffffffffffffffff0000000000000000000000000000000000000000831681179093556040519116919082907f8be0079c531659141344cd1fd0a4f28419497f9722a3daafe3b4186f6b6457e090600090a35050565b6001600160a01b038084166000908152600d60209081526040808320815160a0810183528154861680825260018301548716948201859052600283015487169382018490526003830154871660608301819052600490930154909616608082018190529495909490939291908680808080808a156119f4576119cf6064826123f4565b90506001600160a01b038b166119e65760006119f1565b6119f18e6064611b58565b95505b6001600160a01b038a1615611a3357611a0e6032826123f4565b90506001600160a01b038a16611a25576000611a30565b611a308e6032611b58565b94505b6001600160a01b03891615611a7257611a4d601e826123f4565b90506001600160a01b038916611a64576000611a6f565b611a6f8e601e611b58565b93505b6001600160a01b03881615611ab157611a8c600a826123f4565b90506001600160a01b038816611aa3576000611aae565b611aae8e600a611b58565b92505b6001600160a01b03871615611af057611acb600a826123f4565b90506001600160a01b038716611ae2576000611aed565b611aed8e600a611b58565b91505b8515611b0157611b018f8c88611b78565b8415611b1257611b128f8b87611b78565b8315611b2357611b238f8a86611b78565b8215611b3457611b348f8985611b78565b8115611b4557611b458f8884611b78565b9f9e505050505050505050505050505050565b6000612710611b678385612437565b611b71919061244e565b9392505050565b6001600160a01b038316611bf45760405162461bcd60e51b815260206004820152602560248201527f45524332303a207472616e736665722066726f6d20746865207a65726f20616460448201527f64726573730000000000000000000000000000000000000000000000000000006064820152608401610a63565b6001600160a01b038216611c705760405162461bcd60e51b815260206004820152602360248201527f45524332303a207472616e7366657220746f20746865207a65726f206164647260448201527f65737300000000000000000000000000000000000000000000000000000000006064820152608401610a63565b611c7b838383612014565b6001600160a01b03831660009081526020819052604090205481811015611d0a5760405162461bcd60e51b815260206004820152602660248201527f45524332303a207472616e7366657220616d6f756e742065786365656473206260448201527f616c616e636500000000000000000000000000000000000000000000000000006064820152608401610a63565b6001600160a01b03848116600081815260208181526040808320878703905593871680835291849020805487019055925185815290927fddf252ad1be2c89b69c2b068fc378daa952ba7f163c4a11628f55a4df523b3ef910160405180910390a3611520565b600680547fffffffffffffffffffffff00ffffffffffffffffffffffffffffffffffffffff16740100000000000000000000000000000000000000001790556040805160028082526060820183526000926020830190803683370190505090503081600081518110611de457611de4612489565b6001600160a01b03928316602091820292909201810191909152600854604080517fad5c46480000000000000000000000000000000000000000000000000000000081529051919093169263ad5c46489260048083019391928290030181865afa158015611e56573d6000803e3d6000fd5b505050506040513d601f19601f82011682018060405250810190611e7a91906124b8565b81600181518110611e8d57611e8d612489565b6001600160a01b039283166020918202929092010152600854611eb3913091168461131e565b6008546040517f52aa4c220000000000000000000000000000000000000000000000000000000081526001600160a01b03909116906352aa4c2290611f0790859060009086903090839042906004016124d5565b600060405180830381600087803b158015611f2157600080fd5b505af1158015611f35573d6000803e3d6000fd5b504792505081159050611fe7576006546040516000916001600160a01b03169083908381818185875af1925050503d8060008114611f8f576040519150601f19603f3d011682016040523d82523d6000602084013e611f94565b606091505b5050905080611fe55760405162461bcd60e51b815260206004820152601360248201527f455448207472616e73666572206661696c6564000000000000000000000000006044820152606401610a63565b505b5050600680547fffffffffffffffffffffff00ffffffffffffffffffffffffffffffffffffffff16905550565b6009546001600160a01b0316612099576005546001600160a01b038481169116148061204d57506005546001600160a01b038381169116145b610f6b5760405162461bcd60e51b815260206004820152601660248201527f54726164696e67206973206e6f742073746172746564000000000000000000006044820152606401610a63565b60095474010000000000000000000000000000000000000000900460ff1680156120d057506009546001600160a01b038481169116145b15610f6b57600a54816120f8846001600160a01b031660009081526020819052604090205490565b61210291906123f4565b1115801561213b5750600b548161212e846001600160a01b031660009081526020819052604090205490565b61213891906123f4565b10155b610f6b5760405162461bcd60e51b815260206004820152600660248201527f466f7262696400000000000000000000000000000000000000000000000000006044820152606401610a63565b600060208083528351808285015260005b818110156121b457858101830151858201604001528201612198565b5060006040828601015260407fffffffffffffffffffffffffffffffffffffffffffffffffffffffffffffffe0601f8301168501019250505092915050565b6001600160a01b0381168114610ec757600080fd5b6000806040838503121561221b57600080fd5b8235612226816121f3565b946020939093013593505050565b60006020828403121561224657600080fd5b8135611b71816121f3565b60008060006060848603121561226657600080fd5b8335612271816121f3565b92506020840135612281816121f3565b929592945050506040919091013590565b8015158114610ec757600080fd5b600080604083850312156122b357600080fd5b82356122be816121f3565b915060208301356122ce81612292565b809150509250929050565b6000602082840312156122eb57600080fd5b5035919050565b60006020828403121561230457600080fd5b8135611b7181612292565b60008060006060848603121561232457600080fd5b833561232f81612292565b95602085013595506040909401359392505050565b6000806040838503121561235757600080fd5b8235612362816121f3565b915060208301356122ce816121f3565b600181811c9082168061238657607f821691505b6020821081036123bf577f4e487b7100000000000000000000000000000000000000000000000000000000600052602260045260246000fd5b50919050565b7f4e487b7100000000000000000000000000000000000000000000000000000000600052601160045260246000fd5b808201808211156109fb576109fb6123c5565b60006020828403121561241957600080fd5b8151611b7181612292565b818103818111156109fb576109fb6123c5565b80820281158282048414176109fb576109fb6123c5565b600082612484577f4e487b7100000000000000000000000000000000000000000000000000000000600052601260045260246000fd5b500490565b7f4e487b7100000000000000000000000000000000000000000000000000000000600052603260045260246000fd5b6000602082840312156124ca57600080fd5b8151611b71816121f3565b600060c082018883526020888185015260c0604085015281885180845260e086019150828a01935060005b818110156125255784516001600160a01b031683529383019391830191600101612500565b50506001600160a01b039788166060860152959096166080840152505060a0015294935050505056",
    "linkReferences": {}
  },
  "methodIdentifiers": {
    "FEE_DENOMINATOR()": "d73792a9",
    "allowance(address,address)": "dd62ed3e",
    "approve(address,uint256)": "095ea7b3",
    "balanceOf(address)": "70a08231",
    "blacklist(address,bool)": "404e5129",
    "blacklists(address)": "16c02129",
    "burn(uint256)": "42966c68",
    "burnFrom(address,uint256)": "79cc6790",
    "burnRate()": "bed99850",
    "commissionRate()": "5ea1d6f8",
    "decimals()": "313ce567",
    "decreaseAllowance(address,uint256)": "a457c2d7",
    "devFund()": "4390d2a8",
    "devFundRate()": "c412664a",
    "increaseAllowance(address,uint256)": "39509351",
    "limited()": "860a32ec",
    "maxHoldingAmount()": "89f9a1d3",
    "maxTaxForParentsRate()": "63656178",
    "minHoldingAmount()": "1ab99e12",
    "name()": "06fdde03",
    "owner()": "8da5cb5b",
    "rebateRate()": "b681a1e7",
    "recover(address,uint256)": "5705ae43",
    "refersInfo(address)": "b4cb6a9b",
    "renounceOwnership()": "715018a6",
    "setDevFund(address)": "ae4db919",
    "setParent(address)": "1499c592",
    "setRule(bool,uint256,uint256)": "d07ea4e2",
    "setSwapAndTreasureEnabled(bool)": "c75c136d",
    "setSwapAtAmount(uint256)": "6402511e",
    "setUniswapV2Pair(address)": "a29a6089",
    "swapAndTreasureEnabled()": "fd1e467f",
    "swapAtAmount()": "86917524",
    "symbol()": "95d89b41",
    "taxForParentLevel1Rate()": "9dc67120",
    "taxForParentLevel2Rate()": "c0a45452",
    "taxForParentLevel3Rate()": "61b62d68",
    "taxForParentLevel4Rate()": "2589e55f",
    "taxForParentLevel5Rate()": "74969945",
    "taxRate()": "771a3a1d",
    "totalSupply()": "18160ddd",
    "transfer(address,uint256)": "a9059cbb",
    "transferFrom(address,address,uint256)": "23b872dd",
    "transferOwnership(address)": "f2fde38b",
    "uniswapV2Pair()": "49bd5a5e",
    "uniswapV2Router()": "1694505e",
    "usersInfo(address)": "5d0eaaaf"
  },
  "id": 33
}